{
  "contractName": "MoneyPrinter",
  "abi": [
    {
      "inputs": [],
      "payable": false,
      "stateMutability": "nonpayable",
      "type": "constructor"
    },
    {
      "payable": true,
      "stateMutability": "payable",
      "type": "fallback"
    },
    {
      "constant": false,
      "inputs": [
        {
          "internalType": "address",
          "name": "_o",
          "type": "address"
        }
      ],
      "name": "setOwner",
      "outputs": [],
      "payable": false,
      "stateMutability": "nonpayable",
      "type": "function"
    },
    {
      "constant": false,
      "inputs": [
        {
          "internalType": "address",
          "name": "tokenIn",
          "type": "address"
        },
        {
          "internalType": "uint256",
          "name": "amountIn",
          "type": "uint256"
        },
        {
          "internalType": "uint256",
          "name": "amountOutMin",
          "type": "uint256"
        },
        {
          "internalType": "address[]",
          "name": "path",
          "type": "address[]"
        },
        {
          "internalType": "uint256",
          "name": "deadline",
          "type": "uint256"
        }
      ],
      "name": "printMoney",
      "outputs": [],
      "payable": false,
      "stateMutability": "nonpayable",
      "type": "function"
    },
    {
      "constant": false,
      "inputs": [
        {
          "internalType": "address",
          "name": "sender",
          "type": "address"
        },
        {
          "components": [
            {
              "internalType": "address",
              "name": "owner",
              "type": "address"
            },
            {
              "internalType": "uint256",
              "name": "number",
              "type": "uint256"
            }
          ],
          "internalType": "struct Account.Info",
          "name": "account",
          "type": "tuple"
        },
        {
          "internalType": "bytes",
          "name": "data",
          "type": "bytes"
        }
      ],
      "name": "callFunction",
      "outputs": [],
      "payable": false,
      "stateMutability": "nonpayable",
      "type": "function"
    },
    {
      "constant": false,
      "inputs": [
        {
          "internalType": "address",
          "name": "tokenIn",
          "type": "address"
        },
        {
          "internalType": "uint256",
          "name": "amountIn",
          "type": "uint256"
        },
        {
          "internalType": "address[]",
          "name": "path",
          "type": "address[]"
        }
      ],
      "name": "flashPrintMoney",
      "outputs": [],
      "payable": false,
      "stateMutability": "nonpayable",
      "type": "function"
    }
  ],
  "bytecode": "0x6080604052737a250d5630b4cf539739df2c5dacb4c659f2488d6000806101000a81548173ffffffffffffffffffffffffffffffffffffffff021916908373ffffffffffffffffffffffffffffffffffffffff160217905550731e0447b19bb6ecfdae1e4ae1694b0c3659614e4e600160006101000a81548173ffffffffffffffffffffffffffffffffffffffff021916908373ffffffffffffffffffffffffffffffffffffffff16021790555073c02aaa39b223fe8d0a0e5c4f27ead9083c756cc2600260006101000a81548173ffffffffffffffffffffffffffffffffffffffff021916908373ffffffffffffffffffffffffffffffffffffffff160217905550736b175474e89094c44da98b954eedeac495271d0f600360006101000a81548173ffffffffffffffffffffffffffffffffffffffff021916908373ffffffffffffffffffffffffffffffffffffffff16021790555073a0b86991c6218b36c1d19d4a2e9eb0ce3606eb48600460006101000a81548173ffffffffffffffffffffffffffffffffffffffff021916908373ffffffffffffffffffffffffffffffffffffffff1602179055506000809054906101000a900473ffffffffffffffffffffffffffffffffffffffff16600560006101000a81548173ffffffffffffffffffffffffffffffffffffffff021916908373ffffffffffffffffffffffffffffffffffffffff160217905550600160009054906101000a900473ffffffffffffffffffffffffffffffffffffffff16600660006101000a81548173ffffffffffffffffffffffffffffffffffffffff021916908373ffffffffffffffffffffffffffffffffffffffff16021790555034801561027d57600080fd5b5033600760006101000a81548173ffffffffffffffffffffffffffffffffffffffff021916908373ffffffffffffffffffffffffffffffffffffffff1602179055506120f7806102ce6000396000f3fe60806040526004361061003f5760003560e01c8063105885811461004157806313af40351461006a5780632ddd056a146100935780638b418713146100bc575b005b34801561004d57600080fd5b5061006860048036036100639190810190611513565b6100e5565b005b34801561007657600080fd5b50610091600480360361008c9190810190611387565b610349565b005b34801561009f57600080fd5b506100ba60048036036100b591908101906114a7565b6103e7565b005b3480156100c857600080fd5b506100e360048036036100de9190810190611440565b6106f1565b005b600760009054906101000a900473ffffffffffffffffffffffffffffffffffffffff1673ffffffffffffffffffffffffffffffffffffffff163373ffffffffffffffffffffffffffffffffffffffff161461013f57600080fd5b60008690508073ffffffffffffffffffffffffffffffffffffffff166323b872dd3330896040518463ffffffff1660e01b815260040161018193929190611b28565b602060405180830381600087803b15801561019b57600080fd5b505af11580156101af573d6000803e3d6000fd5b505050506040513d601f19601f820116820180604052506101d391908101906115e6565b508073ffffffffffffffffffffffffffffffffffffffff1663095ea7b36000809054906101000a900473ffffffffffffffffffffffffffffffffffffffff16886040518363ffffffff1660e01b8152600401610230929190611b5f565b602060405180830381600087803b15801561024a57600080fd5b505af115801561025e573d6000803e3d6000fd5b505050506040513d601f19601f8201168201806040525061028291908101906115e6565b50600560009054906101000a900473ffffffffffffffffffffffffffffffffffffffff1673ffffffffffffffffffffffffffffffffffffffff166338ed17398787878733886040518763ffffffff1660e01b81526004016102e896959493929190611c7a565b600060405180830381600087803b15801561030257600080fd5b505af1158015610316573d6000803e3d6000fd5b505050506040513d6000823e3d601f19601f8201168201806040525061033f91908101906115a5565b5050505050505050565b600760009054906101000a900473ffffffffffffffffffffffffffffffffffffffff1673ffffffffffffffffffffffffffffffffffffffff163373ffffffffffffffffffffffffffffffffffffffff16146103a357600080fd5b80600760006101000a81548173ffffffffffffffffffffffffffffffffffffffff021916908373ffffffffffffffffffffffffffffffffffffffff16021790555050565b600760009054906101000a900473ffffffffffffffffffffffffffffffffffffffff1673ffffffffffffffffffffffffffffffffffffffff163373ffffffffffffffffffffffffffffffffffffffff161461044157600080fd5b600061046f600160009054906101000a900473ffffffffffffffffffffffffffffffffffffffff1686610b28565b9050600061047c85610cda565b90508573ffffffffffffffffffffffffffffffffffffffff1663095ea7b3600160009054906101000a900473ffffffffffffffffffffffffffffffffffffffff16836040518363ffffffff1660e01b81526004016104db929190611b5f565b602060405180830381600087803b1580156104f557600080fd5b505af1158015610509573d6000803e3d6000fd5b505050506040513d601f19601f8201168201806040525061052d91908101906115e6565b506060600360405190808252806020026020018201604052801561056b57816020015b610558610fa1565b8152602001906001900390816105505790505b5090506105788387610cf7565b8160008151811061058557fe5b60200260200101819052506105be878787876040516020016105aa9493929190611b88565b604051602081830303815290604052610db0565b816001815181106105cb57fe5b60200260200101819052506105e08383610e5a565b816002815181106105ed57fe5b60200260200101819052506060600160405190808252806020026020018201604052801561063557816020015b61062261100d565b81526020019060019003908161061a5790505b509050610640610f13565b8160008151811061064d57fe5b6020026020010181905250600660009054906101000a900473ffffffffffffffffffffffffffffffffffffffff1673ffffffffffffffffffffffffffffffffffffffff1663a67a6a4582846040518363ffffffff1660e01b81526004016106b5929190611bc8565b600060405180830381600087803b1580156106cf57600080fd5b505af11580156106e3573d6000803e3d6000fd5b505050505050505050505050565b60008060608380602001905161070a91908101906113d9565b9250925092508273ffffffffffffffffffffffffffffffffffffffff1663095ea7b36000809054906101000a900473ffffffffffffffffffffffffffffffffffffffff16846040518363ffffffff1660e01b815260040161076c929190611b5f565b602060405180830381600087803b15801561078657600080fd5b505af115801561079a573d6000803e3d6000fd5b505050506040513d601f19601f820116820180604052506107be91908101906115e6565b50600560009054906101000a900473ffffffffffffffffffffffffffffffffffffffff1673ffffffffffffffffffffffffffffffffffffffff166338ed17398384843061012c42016040518663ffffffff1660e01b8152600401610826959493929190611cd6565b600060405180830381600087803b15801561084057600080fd5b505af1158015610854573d6000803e3d6000fd5b505050506040513d6000823e3d601f19601f8201168201806040525061087d91908101906115a5565b50600060028301905060008473ffffffffffffffffffffffffffffffffffffffff166370a08231306040518263ffffffff1660e01b81526004016108c19190611b0d565b60206040518083038186803b1580156108d957600080fd5b505afa1580156108ed573d6000803e3d6000fd5b505050506040513d601f19601f82011682018060405250610911919081019061160f565b9050818573ffffffffffffffffffffffffffffffffffffffff166370a08231306040518263ffffffff1660e01b815260040161094d9190611b0d565b60206040518083038186803b15801561096557600080fd5b505afa158015610979573d6000803e3d6000fd5b505050506040513d601f19601f8201168201806040525061099d919081019061160f565b10156109de576040517f08c379a00000000000000000000000000000000000000000000000000000000081526004016109d590611c1f565b60405180910390fd5b6000828673ffffffffffffffffffffffffffffffffffffffff166370a08231306040518263ffffffff1660e01b8152600401610a1a9190611b0d565b60206040518083038186803b158015610a3257600080fd5b505afa158015610a46573d6000803e3d6000fd5b505050506040513d601f19601f82011682018060405250610a6a919081019061160f565b0390508573ffffffffffffffffffffffffffffffffffffffff1663a9059cbb600760009054906101000a900473ffffffffffffffffffffffffffffffffffffffff16836040518363ffffffff1660e01b8152600401610aca929190611b5f565b602060405180830381600087803b158015610ae457600080fd5b505af1158015610af8573d6000803e3d6000fd5b505050506040513d601f19601f82011682018060405250610b1c91908101906115e6565b50505050505050505050565b60008083905060008173ffffffffffffffffffffffffffffffffffffffff1663295c39a56040518163ffffffff1660e01b815260040160206040518083038186803b158015610b7657600080fd5b505afa158015610b8a573d6000803e3d6000fd5b505050506040513d601f19601f82011682018060405250610bae919081019061160f565b9050600080600090505b82811015610c98578373ffffffffffffffffffffffffffffffffffffffff1663062bd3e9826040518263ffffffff1660e01b8152600401610bf99190611c5f565b60206040518083038186803b158015610c1157600080fd5b505afa158015610c25573d6000803e3d6000fd5b505050506040513d601f19601f82011682018060405250610c4991908101906113b0565b91508573ffffffffffffffffffffffffffffffffffffffff168273ffffffffffffffffffffffffffffffffffffffff161415610c8b5780945050505050610cd4565b8080600101915050610bb8565b506040517f08c379a0000000000000000000000000000000000000000000000000000000008152600401610ccb90611c3f565b60405180910390fd5b92915050565b6000610cf0600283610f4c90919063ffffffff16565b9050919050565b610cff61103d565b60405180610100016040528060016008811115610d1857fe5b815260200160008152602001604051806080016040528060001515815260200160006001811115610d4557fe5b815260200160006001811115610d5757fe5b8152602001858152508152602001848152602001600081526020013073ffffffffffffffffffffffffffffffffffffffff1681526020016000815260200160405180602001604052806000815250815250905092915050565b610db861103d565b604051806101000160405280600880811115610dd057fe5b815260200160008152602001604051806080016040528060001515815260200160006001811115610dfd57fe5b815260200160006001811115610e0f57fe5b81526020016000815250815260200160008152602001600081526020013073ffffffffffffffffffffffffffffffffffffffff16815260200160008152602001838152509050919050565b610e6261103d565b60405180610100016040528060006008811115610e7b57fe5b815260200160008152602001604051806080016040528060011515815260200160006001811115610ea857fe5b815260200160006001811115610eba57fe5b8152602001858152508152602001848152602001600081526020013073ffffffffffffffffffffffffffffffffffffffff1681526020016000815260200160405180602001604052806000815250815250905092915050565b610f1b6110a9565b60405180604001604052803073ffffffffffffffffffffffffffffffffffffffff1681526020016001815250905090565b600080828401905083811015610f97576040517f08c379a0000000000000000000000000000000000000000000000000000000008152600401610f8e90611bff565b60405180910390fd5b8091505092915050565b60405180610100016040528060006008811115610fba57fe5b815260200160008152602001610fce6110d9565b81526020016000815260200160008152602001600073ffffffffffffffffffffffffffffffffffffffff16815260200160008152602001606081525090565b6040518060400160405280600073ffffffffffffffffffffffffffffffffffffffff168152602001600081525090565b6040518061010001604052806000600881111561105657fe5b81526020016000815260200161106a6110d9565b81526020016000815260200160008152602001600073ffffffffffffffffffffffffffffffffffffffff16815260200160008152602001606081525090565b6040518060400160405280600073ffffffffffffffffffffffffffffffffffffffff168152602001600081525090565b6040518060800160405280600015158152602001600060018111156110fa57fe5b81526020016000600181111561110c57fe5b8152602001600081525090565b60008135905061112881612058565b92915050565b60008151905061113d81612058565b92915050565b6000815190506111528161206f565b92915050565b60008083601f84011261116a57600080fd5b8235905067ffffffffffffffff81111561118357600080fd5b60208301915083602082028301111561119b57600080fd5b9250929050565b600082601f8301126111b357600080fd5b81516111c66111c182611d5d565b611d30565b915081818352602084019350602081019050838560208402820111156111eb57600080fd5b60005b8381101561121b5781611201888261112e565b8452602084019350602083019250506001810190506111ee565b5050505092915050565b600082601f83011261123657600080fd5b815161124961124482611d85565b611d30565b9150818183526020840193506020810190508385602084028201111561126e57600080fd5b60005b8381101561129e57816112848882611372565b845260208401935060208301925050600181019050611271565b5050505092915050565b6000815190506112b781612086565b92915050565b600082601f8301126112ce57600080fd5b81356112e16112dc82611dad565b611d30565b915080825260208301602083018583830111156112fd57600080fd5b611308838284611fde565b50505092915050565b60006040828403121561132357600080fd5b61132d6040611d30565b9050600061133d84828501611119565b60008301525060206113518482850161135d565b60208301525092915050565b60008135905061136c8161209d565b92915050565b6000815190506113818161209d565b92915050565b60006020828403121561139957600080fd5b60006113a784828501611119565b91505092915050565b6000602082840312156113c257600080fd5b60006113d08482850161112e565b91505092915050565b6000806000606084860312156113ee57600080fd5b60006113fc86828701611143565b935050602061140d86828701611372565b925050604084015167ffffffffffffffff81111561142a57600080fd5b611436868287016111a2565b9150509250925092565b60008060006080848603121561145557600080fd5b600061146386828701611119565b935050602061147486828701611311565b925050606084013567ffffffffffffffff81111561149157600080fd5b61149d868287016112bd565b9150509250925092565b600080600080606085870312156114bd57600080fd5b60006114cb87828801611119565b94505060206114dc8782880161135d565b935050604085013567ffffffffffffffff8111156114f957600080fd5b61150587828801611158565b925092505092959194509250565b60008060008060008060a0878903121561152c57600080fd5b600061153a89828a01611119565b965050602061154b89828a0161135d565b955050604061155c89828a0161135d565b945050606087013567ffffffffffffffff81111561157957600080fd5b61158589828a01611158565b9350935050608061159889828a0161135d565b9150509295509295509295565b6000602082840312156115b757600080fd5b600082015167ffffffffffffffff8111156115d157600080fd5b6115dd84828501611225565b91505092915050565b6000602082840312156115f857600080fd5b6000611606848285016112a8565b91505092915050565b60006020828403121561162157600080fd5b600061162f84828501611372565b91505092915050565b6000611644838361168b565b60208301905092915050565b600061165c83836119b8565b905092915050565b60006116708383611ac0565b60408301905092915050565b61168581611f72565b82525050565b61169481611edf565b82525050565b6116a381611edf565b82525050565b60006116b58385611e73565b93506116c082611dd9565b8060005b858110156116f9576116d68284611ec8565b6116e08882611638565b97506116eb83611e3f565b9250506001810190506116c4565b5085925050509392505050565b600061171182611e13565b61171b8185611e73565b935061172683611de3565b8060005b8381101561175757815161173e8882611638565b975061174983611e4c565b92505060018101905061172a565b5085935050505092915050565b600061176f82611e1e565b6117798185611e84565b93508360208202850161178b85611df3565b8060005b858110156117c757848403895281516117a88582611650565b94506117b383611e59565b925060208a0199505060018101905061178f565b50829750879550505050505092915050565b60006117e482611e29565b6117ee8185611e95565b93506117f983611e03565b8060005b8381101561182a5781516118118882611664565b975061181c83611e66565b9250506001810190506117fd565b5085935050505092915050565b61184081611f03565b82525050565b600061185182611e34565b61185b8185611ea6565b935061186b818560208601611fed565b61187481612020565b840191505092915050565b61188881611f84565b82525050565b61189781611f96565b82525050565b6118a681611fa8565b82525050565b60006118b9601b83611eb7565b91507f536166654d6174683a206164646974696f6e206f766572666c6f7700000000006000830152602082019050919050565b60006118f9602483611eb7565b91507f4e6f7420656e6f7567682066756e647320746f2072657061792064796478206c60008301527f6f616e21000000000000000000000000000000000000000000000000000000006020830152604082019050919050565b600061195f602483611eb7565b91507f4e6f206d61726b6574496420666f756e6420666f722070726f7669646564207460008301527f6f6b656e000000000000000000000000000000000000000000000000000000006020830152604082019050919050565b6000610160830160008301516119d1600086018261187f565b5060208301516119e46020860182611aef565b5060408301516119f76040860182611a6b565b506060830151611a0a60c0860182611aef565b506080830151611a1d60e0860182611aef565b5060a0830151611a3161010086018261168b565b5060c0830151611a45610120860182611aef565b5060e0830151848203610140860152611a5e8282611846565b9150508091505092915050565b608082016000820151611a816000850182611837565b506020820151611a94602085018261188e565b506040820151611aa7604085018261189d565b506060820151611aba6060850182611aef565b50505050565b604082016000820151611ad6600085018261168b565b506020820151611ae96020850182611aef565b50505050565b611af881611f68565b82525050565b611b0781611f68565b82525050565b6000602082019050611b22600083018461167c565b92915050565b6000606082019050611b3d600083018661167c565b611b4a602083018561167c565b611b576040830184611afe565b949350505050565b6000604082019050611b74600083018561169a565b611b816020830184611afe565b9392505050565b6000606082019050611b9d600083018761169a565b611baa6020830186611afe565b8181036040830152611bbd8184866116a9565b905095945050505050565b60006040820190508181036000830152611be281856117d9565b90508181036020830152611bf68184611764565b90509392505050565b60006020820190508181036000830152611c18816118ac565b9050919050565b60006020820190508181036000830152611c38816118ec565b9050919050565b60006020820190508181036000830152611c5881611952565b9050919050565b6000602082019050611c746000830184611afe565b92915050565b600060a082019050611c8f6000830189611afe565b611c9c6020830188611afe565b8181036040830152611caf8186886116a9565b9050611cbe606083018561167c565b611ccb6080830184611afe565b979650505050505050565b600060a082019050611ceb6000830188611afe565b611cf86020830187611afe565b8181036040830152611d0a8186611706565b9050611d19606083018561167c565b611d266080830184611afe565b9695505050505050565b6000604051905081810181811067ffffffffffffffff82111715611d5357600080fd5b8060405250919050565b600067ffffffffffffffff821115611d7457600080fd5b602082029050602081019050919050565b600067ffffffffffffffff821115611d9c57600080fd5b602082029050602081019050919050565b600067ffffffffffffffff821115611dc457600080fd5b601f19601f8301169050602081019050919050565b6000819050919050565b6000819050602082019050919050565b6000819050602082019050919050565b6000819050602082019050919050565b600081519050919050565b600081519050919050565b600081519050919050565b600081519050919050565b6000602082019050919050565b6000602082019050919050565b6000602082019050919050565b6000602082019050919050565b600082825260208201905092915050565b600082825260208201905092915050565b600082825260208201905092915050565b600082825260208201905092915050565b600082825260208201905092915050565b6000611ed76020840184611119565b905092915050565b6000611eea82611f48565b9050919050565b6000611efc82611f48565b9050919050565b60008115159050919050565b6000819050611f1d82612031565b919050565b6000819050611f308261203e565b919050565b6000819050611f438261204b565b919050565b600073ffffffffffffffffffffffffffffffffffffffff82169050919050565b6000819050919050565b6000611f7d82611fba565b9050919050565b6000611f8f82611f0f565b9050919050565b6000611fa182611f22565b9050919050565b6000611fb382611f35565b9050919050565b6000611fc582611fcc565b9050919050565b6000611fd782611f48565b9050919050565b82818337600083830152505050565b60005b8381101561200b578082015181840152602081019050611ff0565b8381111561201a576000848401525b50505050565b6000601f19601f8301169050919050565b6009811061203b57fe5b50565b6002811061204857fe5b50565b6002811061205557fe5b50565b61206181611edf565b811461206c57600080fd5b50565b61207881611ef1565b811461208357600080fd5b50565b61208f81611f03565b811461209a57600080fd5b50565b6120a681611f68565b81146120b157600080fd5b5056fea365627a7a72315820d785a0e00ef64181135be11f95a0c5cf9840e0453ff2364612866643e71c0f7b6c6578706572696d656e74616cf564736f6c63430005110040",
  "source": "pragma solidity ^0.5.0;\npragma experimental ABIEncoderV2;\n\nimport \"@studydefi/money-legos/dydx/contracts/DydxFlashloanBase.sol\";\nimport \"@studydefi/money-legos/dydx/contracts/ICallee.sol\";\n\nimport \"@openzeppelin/contracts/token/ERC20/IERC20.sol\";\nimport './IUniswapV2Router02.sol';\nimport './IWeth.sol';\n\ncontract MoneyPrinter is ICallee, DydxFlashloanBase {\n\taddress uni_addr = 0x7a250d5630B4cF539739dF2C5dAcb4c659F2488D;\n\t//address solo_addr = 0x4EC3570cADaAEE08Ae384779B0f3A45EF85289DE; // kovan\n\t//address weth_addr = 0xd0A1E359811322d97991E03f863a0C30C2cF029C; // kovan\n\t//address dai_addr = 0xFf795577d9AC8bD7D90Ee22b6C1703490b6512FD; // kovan\n\taddress solo_addr = 0x1E0447b19BB6EcFdAe1e4AE1694b0C3659614e4e;\n\taddress weth_addr = 0xC02aaA39b223FE8D0A0e5C4F27eAD9083C756Cc2;\n\taddress dai_addr = 0x6B175474E89094C44Da98b954EedeAC495271d0F;\n\taddress usdc_addr = 0xA0b86991c6218b36c1d19D4a2e9Eb0cE3606eB48;\n\n    IUniswapV2Router02 uni = IUniswapV2Router02(uni_addr);\n\tISoloMargin solo = ISoloMargin(solo_addr);\n\n    address owner;\n\n    constructor() public {\n\t\towner = msg.sender;\n    }\n\n\tmodifier onlyOwner() {\n\t\trequire(msg.sender == owner);\n\t\t_;\n\t}\n\n\tfunction setOwner(address _o) onlyOwner external {\n\t\towner = _o;\n\t}\n\n\tfunction printMoney(\n        address tokenIn,\n        uint256 amountIn,\n        uint256 amountOutMin,\n        address[] calldata path,\n        uint256 deadline\n    ) onlyOwner external {\n        IERC20 erc20 = IERC20(tokenIn);\n        erc20.transferFrom(msg.sender, address(this), amountIn);\n\t\terc20.approve(uni_addr, amountIn); // usdt -1 six decimal would fail!\n        uni.swapExactTokensForTokens(amountIn, amountOutMin, path, msg.sender, deadline);\n    }\n\n    // This is the function that will be called postLoan\n    // i.e. Encode the logic to handle your flashloaned funds here\n    function callFunction(\n        address sender,\n        Account.Info memory account,\n        bytes memory data\n    ) public {\n\t\t(address tokenIn, uint amountIn, address[] memory path) = abi.decode(data, (address, uint256, address[]));\n\n\t\tIERC20(tokenIn).approve(uni_addr, amountIn);\n\t\tuni.swapExactTokensForTokens(amountIn, amountIn, path, address(this), now + 5 minutes);\n\n\t\tuint256 repayAmount = amountIn + 2;\n        uint256 balance = IERC20(tokenIn).balanceOf(address(this));\n        require(\n            IERC20(tokenIn).balanceOf(address(this)) >= repayAmount,\n            \"Not enough funds to repay dydx loan!\"\n        );\n\n        uint profit = IERC20(tokenIn).balanceOf(address(this)) - repayAmount; \n        IERC20(tokenIn).transfer(owner, profit);\n    }\n\n    function flashPrintMoney(\n      address tokenIn, \n      uint256 amountIn, \n      address[] calldata path\n\t) onlyOwner external {\n        // Get marketId from token address\n        uint256 marketId = _getMarketIdFromTokenAddress(solo_addr, tokenIn);\n\n        // Calculate repay amount (_amount + (2 wei))\n        // Approve transfer from\n        uint256 repayAmount = _getRepaymentAmountInternal(amountIn);\n        IERC20(tokenIn).approve(solo_addr, repayAmount);\n\n        Actions.ActionArgs[] memory operations = new Actions.ActionArgs[](3);\n\n        operations[0] = _getWithdrawAction(marketId, amountIn);\n        operations[1] = _getCallAction(\n            abi.encode(tokenIn, amountIn, path)\n        );\n        operations[2] = _getDepositAction(marketId, repayAmount);\n\n        Account.Info[] memory accountInfos = new Account.Info[](1);\n        accountInfos[0] = _getAccountInfo();\n\n        solo.operate(accountInfos, operations);\n    }\n\n    function() external payable {}\n}\n",
  "sourcePath": "/Users/cyan/Desktop/projects/arb/arb/contract/contracts/MoneyPrinter.sol",
  "compiler": {
    "name": "solc",
    "version": "0.5.17+commit.d19bba13.Emscripten.clang"
  },
  "schemaVersion": "3.2.5",
  "updatedAt": "2020-09-28T09:50:44.293Z",
  "devdoc": {
    "methods": {}
  },
  "userdoc": {
    "methods": {}
  }
}